:10000000000400209101000011A70000C3B000000F
:100010009301000093010000930100009301000090
:100020009301000093010000930100009301000080
:10003000930100009301000093010000A1B10000B2
:100040009301000093010000930100005DEB0000AC
:100050009301000081EB000095EB0000EDEB000048
:100060009301000093010000D9EB00009301000010
:100070009301000093010000C5EC00009DEB00001F
:10008000B1EB0000C5EB00009301000093010000FC
:100090009301000093010000930100009301000010
:1000A0009301000093010000930100009301000000
:1000B000930100009301000093010000D9B60000F5
:1000C00072B6244880F30888234880F30988022008
:1000D00080F31488BFF36F8F09F07EF908F0CBFD31
:1000E0001E481F491B4A914202DA08600431FAE7B0
:1000F0001C49194A914202DA08600431FAE71A49A8
:100100001A4A1B4B9A4204DA086810600431043220
:10011000F8E700201749184A914202DA08600431D2
:10012000FAE709F05DF909F058F9144C144DAC42A6
:1001300003DA216888470434F9E704F039FE114CEA
:10014000114DAC4203DA216888470434F9E70F49BE
:100150000847000000040020000C002055555555AC
:10016000000000200004002044080100000C0020D2
:100170008014002080140020E4330020C000000020
:10018000C0000000C0000000C0000000DD930000BF
:1001900096E700F000F8FEE7F0B544464D465646B7
:1001A0005F46F0B46B46CB60C3689D46F0BCA0468A
:1001B000A946B246BB46F0BD62B6281CA047002047
:1001C0000AF060FAFEE70AF0C1F9024A024B136036
:1001D000FEE7C04604ED00E00000008002B4714676
:1001E00049084900095649008E4402BC7047C04680
:1001F00002B4714649084900095C49008E4402BCBA
:100200007047C04603B47146490840004900095A86
:1002100049008E4403BC7047002243088B4274D3CC
:1002200003098B425FD3030A8B4244D3030B8B42F7
:1002300028D3030C8B420DD3FF22090212BA030C00
:100240008B4202D31212090265D0030B8B4219D3E1
:1002500000E0090AC30B8B4201D3CB03C01A524101
:10026000830B8B4201D38B03C01A5241430B8B4249
:1002700001D34B03C01A5241030B8B4201D30B0332
:10028000C01A5241C30A8B4201D3CB02C01A524159
:10029000830A8B4201D38B02C01A5241430A8B421C
:1002A00001D34B02C01A5241030A8B4201D30B0205
:1002B000C01A5241CDD2C3098B4201D3CB01C01A1F
:1002C000524183098B4201D38B01C01A5241430929
:1002D0008B4201D34B01C01A524103098B4201D317
:1002E0000B01C01A5241C3088B4201D3CB00C01A84
:1002F000524183088B4201D38B00C01A52414308FC
:100300008B4201D34B00C01A5241411A00D2014620
:10031000524110467047FFE701B5002000F0F0F8A9
:1003200002BDC0460029F7D076E7704703460B436D
:100330007FD4002243088B4274D303098B425FD3DE
:10034000030A8B4244D3030B8B4228D3030C8B420A
:100350000DD3FF22090212BA030C8B4202D31212F0
:10036000090265D0030B8B4219D300E0090AC30BC5
:100370008B4201D3CB03C01A5241830B8B4201D372
:100380008B03C01A5241430B8B4201D34B03C01A5B
:100390005241030B8B4201D30B03C01A5241C30AD3
:1003A0008B4201D3CB02C01A5241830A8B4201D344
:1003B0008B02C01A5241430A8B4201D34B02C01A2E
:1003C0005241030A8B4201D30B02C01A5241CDD2D3
:1003D000C3098B4201D3CB01C01A524183098B421E
:1003E00001D38B01C01A524143098B4201D34B0107
:1003F000C01A524103098B4201D30B01C01A52416A
:10040000C3088B4201D3CB00C01A524183088B42F0
:1004100001D38B00C01A524143088B4201D34B00D9
:10042000C01A5241411A00D201465241104670474B
:100430005DE0CA0F00D04942031000D34042534050
:1004400000229C4603098B422DD3030A8B4212D310
:10045000FC22890112BA030A8B420CD38901921142
:100460008B4208D3890192118B4204D389013AD07F
:10047000921100E08909C3098B4201D3CB01C01A54
:10048000524183098B4201D38B01C01A5241430967
:100490008B4201D34B01C01A524103098B4201D355
:1004A0000B01C01A5241C3088B4201D3CB00C01AC2
:1004B000524183088B4201D38B00C01A5241D9D2DA
:1004C00043088B4201D34B00C01A5241411A00D25B
:1004D0000146634652415B10104601D34042002B57
:1004E00000D54942704763465B1000D3404201B5D6
:1004F000002000F005F802BD0029F8D016E770478B
:100500007047C046844608006146FFE71FB500F00B
:100510000FFB002801D40021C8421FBD10B500F018
:1005200097FA4042013010BD10B500F001FB0028E1
:1005300001DB002010BD012010BDC04610B500F049
:10054000F7FA002801DD002010BD012010BDC046D3
:1005500010B500F0A5FA002801DC002010BD012034
:1005600010BDC04610B500F09BFA002801DA00204B
:1005700010BD012010BDC0461C2101231B04984260
:1005800001D3000C10391B0A984201D3000A083924
:100590001B09984201D30009043902A2105C4018DB
:1005A0007047C0460403020201010101000000007F
:1005B00000000000002B11D1002A0FD1002900D12A
:1005C000002802D00021C943080007B4024802A154
:1005D0004018029003BDC04629FFFFFF03B46846E0
:1005E00001B5029800F052F8019B9E4602B00CBC87
:1005F0007047C046F0B5CE469946030C9C4613049E
:1006000047461B0C1D000E0061460404240C80B5F7
:100610000700100C4B436543414360432C0CC0184A
:1006200024188C46A34203D980235B029846C44415
:10063000494679435643230C2D042D0C89196344F4
:1006400024046019C918C0BCB946B046F0BDC04604
:1006500070B500220C4B04000D0002F043FA002894
:1006600004D12000290002F033F970BD064B0022AE
:100670002000290001F0F4FC02F02AF980231B0677
:100680009C466044F1E7C0460000E041F0B55746A3
:100690004E464546DE46E0B504000D0092469946BA
:1006A00083B08B4230D82DD04946504602F024FA10
:1006B00029000600200002F01FFA331A9846203B5A
:1006C00034D49B4653465A46934042461F005346F5
:1006D00093401E00AF423BD8AF4200D179E05B4669
:1006E000A41BBD41002B00DA76E00022002300921B
:1006F000019301235A4693400193012342469340BC
:10070000009329E08242CFD9002200230092019376
:100710000C9B002B01D01C605D600098019903B018
:10072000F0BCBB46B246A946A046F0BD42469B4639
:1007300020239B1A5246DA40414613004A468A401B
:10074000170042461F43534693401E00AF42C3D991
:1007500000220023009201934346002BD8D0FB07D0
:1007600072081A4346467B080EE0AB4201D1A24212
:100770000CD8A41A9D41012024196D410021013E8D
:1007800024184D41002E06D0AB42EED9013E24196B
:100790006D41002EF8D1009801995B46001969411E
:1007A000002B24DB2B005A464646D3402A001C006F
:1007B000F2405B461500002B2ADB26009E403300EA
:1007C00026004746BE403200801A994100900191B0
:1007D0009EE7A342BCD882E74246202300219B1A11
:1007E0000022009101920122DA40019285E74246FF
:1007F00020239B1A2A0046469A402300F34046468F
:1008000013432A001C00F2405B461500002BD4DA8B
:10081000202342462F009B1B97402600DE403B00D2
:100820003343CDE7F0B546464F46D6464502C0B500
:10083000C30F470098460E1C6D0A3F0E5BD0FF2F7A
:1008400021D08023ED00DB041D43002399469A4606
:100850007F3F74027300640A1B0EF60F002B20D03A
:10086000FF2B43D080220020E400D20414437F3BBE
:100870004246FF1A4B4672400F2B00D99DE071494A
:100880009B00CB589F46002D5AD108239946063B22
:1008900074029A467300FF27640A1B0EF60F002BA2
:1008A000DED1002C3BD10123424649467240194318
:1008B0000E2918D86448890041588F465346022BA8
:1008C00000D1B8E0032B6ED042462C00012B40D162
:1008D00000200024C0052043D2071043E0BCBA46E4
:1008E000B146A846F0BDFF200024F3E7002C20D13C
:1008F0000223FF3FD8E7002D05D104239946033B8F
:1009000000279A46A5E72800FFF736FE7627431F03
:100910009D4000237F4299469A463F1A99E720005E
:10092000FFF72AFE431F9C4076235B421B1A0020E0
:100930009EE703234A461A4391460320FC3397E778
:100940000C239946093BFF279A4682E703282CD0BF
:10095000320038007F30002847DD630704D00F23C2
:100960002340042B00D00434230103D53800374B37
:1009700080301C40FE28B6DCA401640AC0B2A9E79E
:1009800080240022FF20E403A4E78023DB031D4230
:1009900001D01C420BD08024E4032C436402424665
:1009A000FF20640A96E746462C008023DB031C43A5
:1009B00064023200FF20640A8CE76D016001854209
:1009C0002DD21B230024013F0126290064006D0065
:1009D000002901DB854201D32D1A3443013B002B52
:1009E000F3D16B1E9D412C43B3E701231B1A1B2B34
:1009F00000DD6DE721009E37D940BC400B00611E31
:100A00008C412343590704D00F211940042900D0F9
:100A10000433590113D49B0100205C0A5AE71A23BE
:100A200001242D1AD0E7981E43425841404232001B
:100A30000024C0B24EE74246FF2000244AE70120CE
:100A4000002447E7DCF900001CFA0000FFFFFFF775
:100A500070B542004E024C0045026D0A120EC30FE3
:100A6000760A240EC90FFF2A10D0FF2C0CD00120CB
:100A7000A2420AD1B54208D18B420FD0002A04D13C
:100A80002800431E984100E0012070BD0120FF2C8A
:100A9000FBD13543F9D14B401800F6E70020F4E7CD
:100AA00030B5420044024D02C30F4800640A120EE2
:100AB0006D0A000EC90FFF2A18D0FF280AD0002A9D
:100AC0001ED100280AD1002D29D0002C2DD148009C
:100AD000013830BD002D25D1002A01D1002CF6D0DF
:100AE0008B4219D001205B421843F2E7002C19D148
:100AF000FF28F7D1002D15D100208B42F2D1E8E775
:100B00000028EFD08B42EDD18242EBDC04DBAC421B
:100B1000E8D80020AC42DCD258000138D9E7002CDC
:100B2000D7D0DFE702204042D3E78B42DAD1EEE7AD
:100B300030B5420044024D02C30F4800640A120E51
:100B40006D0A000EC90FFF2A17D0FF280AD0002A0D
:100B50001BD100280AD1002D1DD0002C2DD148001A
:100B6000013811E0002D0ED1002A01D1002CF6D061
:100B70008B420CD15800013806E0002C03D1FF282D
:100B800005D1002D15D0022030BD002806D101204E
:100B90005B421843F8E7002CF6D0F8E78B42F6D119
:100BA0008242F4DCE6DBAC42F1D80020AC42EBD26E
:100BB000E0E700208B42EAD1E6E78B42E7D1F2E79B
:100BC00070B5002812D0C317C5185D40C40F2800A7
:100BD000FFF7D2FC9E231B1A962B0FDC082838D077
:100BE000083885406D026D0AD8B202E0002400206A
:100BF0000025C0052843E407204370BD992B14DC71
:100C0000421F95402A001549114055071CD00F2559
:100C10002A40042A18D00431CA08490115D59F2357
:100C20005202181A550AC0B2E3E7020029001B322B
:100C300091404A1E91410522121AD5402A000A43CA
:100C4000064911405507E2D1CA085202550AD8B2E6
:100C5000CFE76D026D0A8E30CBE7C046FFFFFFFB8A
:100C6000F0B54F464646D646C0B50D0382B0009259
:100C700001934E00C300CC0F690A450F9C46009AB1
:100C8000019B0D435F001903D80F009B490A5B0FBE
:100C90001943009B760D7F0DDA00F31B844258D078
:100CA000002B13DD002F00D088E00800104300D196
:100CB00059E1581E012B00D1C2E2B14FBB4200D115
:100CC00041E1382800DD6AE2030064E1002B00D135
:100CD000B1E0BB1B002E00D0E1E164462C4300D103
:100CE00076E25C1E012B00D1E8E2A54EB34200D1B2
:100CF000B7E2382C00DC6BE3541EA2429241524210
:100D00008D1AA0461E0004002A0268D443461F1D07
:100D100047459B415B42ED182B0200D49DE3984A66
:100D20000136964200D1EBE0964A73052A405B0DEE
:100D30005107FF0852020F43120B1B051343E40730
:100D400023433800190002B0E0BCBA46B146A846B9
:100D5000F0BD002B00DCD7E0002F00D09AE00800A7
:100D6000104300D1FFE0581E012B00D148E2844F10
:100D7000BB4200D1E7E0382800DCB8E28022120450
:100D8000154200D149E31E000023150098467C4B14
:100D900001369E4200D1B3E07A4B01211D4043460B
:100DA0005A081940EF070A4317436D087B07B3D071
:100DB0000F233B40042BAFD0B846A7E770488642CC
:100DC00000D1C0E0382B00DCE2E001235B42634449
:100DD0009C45804140422D1A98462B0296D501230E
:100DE0005B429846684D2800FFF7C6FB0300083BAE
:100DF00020214046CA1AD040020040469D409840FB
:100E00002A438046B34200DA72E1981B4346013020
:100E1000091A45468B40C5405E1EB34117008F40FE
:100E20002B431F43C2403B00150000261343BDD196
:100E30000027002281E7554F731C3B4200D01BE185
:100E400063460F002B431743002E00D0C4E1002B54
:100E500000D145E2002F00D107E163469B1A984676
:100E6000C445B6416B1A76429B1B8026360433423A
:100E700000D1CBE26346D31A9A4292411F00491B2C
:100E800052428A1A9C46174300D0EDE20400002328
:100E9000002252E73A48864255D0382B00DD48E11F
:100EA0008020000401431F2B00DDE3E12027F81A16
:100EB000824608005746B840814610004F46D84049
:100EC000074338005746BA40D940571EBA416D18FB
:100ED000104360448046E045804140422D182B027B
:100EE00000D554E743465B0700D1B9E20F234246E1
:100EF0001340042B00D009E733004246D20834E007
:100F000033000022002718E7002B00D18FE0BB1B25
:100F1000002E00D033E16046284300D140E2581E45
:100F2000012B00D10AE2164EB34200D185E23828E7
:100F300000DC87E280252D04294200D19CE21E00BE
:100F40000023984623E763466E07D8080643ED085A
:100F500037002F4311D0802212032A431203370097
:100F6000074B120BE9E66246D2086E071643044AA5
:100F7000ED089342ECD03700D6E0014B0022DCE6CE
:100F8000FF070000FFFF7FFFFFFF7F00FE0700005D
:100F90008020000401431F2B00DDB1E02027F81A58
:100FA000824608005746B840814610004F46D84058
:100FB000074338005746BA40D940571EBA416D1A08
:100FC000104363461B1A9C458041984640422D1AA7
:100FD0002B0287D56D026D0A002D00D003E7404635
:100FE000FFF7CAFA030018331F2B00DC00E7424664
:100FF000083882409E4200DD91E09B1B581C1F2850
:1010000000DCF8E117001F3BDF40202805D040231B
:101010001B1A9A40531E9A411743002F3CD00026BA
:101020007B0700D0C4E63500B846330065E7CB48FF
:10103000731C034200D085E063462B43002E00D092
:1010400092E10F001743002B00D1D8E1002F0CD004
:101050006244624580416D1840422D182B0200D534
:10106000F2E1170094462F4316D063466F07D80865
:1010700007430023ED0857E063469B1A9846C44592
:10108000BF416B1A7F42DB1B1F0200D5AEE0474613
:101090001D001F43A0D10024002300224DE6B04CC8
:1010A000A74200D1DDE0382B00DD85E08024240458
:1010B00025431F2B00DDECE02026F41AA1462C006E
:1010C0004E46B4406646DE403443A04666464C4633
:1010D000A640DD40741EA6414446491B3443131B01
:1010E0009A4292415242984604003E008D1A6FE7A0
:1010F000F61A03009B4D15405B0700D0F6E6FBE6B1
:1011000018000F002038C740202B03D04020C31AFE
:1011100099400A43531E9A411000384351E79149C0
:10112000F31A0A405707D5082A035B05120B5B0D1B
:1011300003E680231B041D4200D1BBE01D000023F9
:10114000984624E68648834200D1DAE66244624546
:101150008041691840420918C80752081043804668
:101160004D08520705D00F221E000240042A00D06D
:10117000CCE542466F07D20817430D09D4E77848FB
:10118000874200D1D5E0382B00DCB2E080252D0469
:10119000294200D14CE100233E009846F7E50122A8
:1011A000524262449445804140422D1A90461E00AE
:1011B0002A0200D513E6A9E5531E9A4292415242F3
:1011C0008D1A984604003E002B0200D507E69DE5E7
:1011D00004000D00D208C8E6002B00D0E3E0002F89
:1011E0003FD1802200245E4B1203A6E56346D31A4A
:1011F0009A4292414D1B524298460400AD1AEBE6CA
:1012000062441600664580416A1840421218130273
:1012100000D49DE0534973080A40D1071943570889
:101220005B0700D1FEE00F230B40042B00D1F9E057
:101230000B1D98468845AD416D420223ED195CE6D1
:1012400063469B1A9C4580416D1A40422D1A984670
:101250002B020DD443466F07DB081F43ED08012323
:1012600062E74E07D20804001643CD0870E604007A
:101270000126AFE618000F002038C740202B03D00E
:101280004020C31A99400A43531E9A411000384324
:101290001FE61C002E00203CE640202B05D04024F9
:1012A000E31A9D4063462B439C466446631E9C4163
:1012B000344314E701236344984627E56346D31A71
:1012C0009A4292414D1B5242AD1A98462B02CED4FF
:1012D00043466F07DB081F4304000123ED0823E7A3
:1012E000002F00D1D7E604000D009446BDE60300B0
:1012F000D9E58020000405431F2B6BDC2020C01A99
:10130000804628004646B0406646DE400643B14669
:1013100060464646B040DD40461EB0414E46491943
:101320003043804690449045924152423E005518C9
:10133000D5E54E07D2081643CD0809E663469E1848
:1013400096429241691852428A18130200D561E709
:101350005707F60801233743D508E5E6FE070000E6
:10136000FF070000FFFF7FFF002BE2D06346DE088F
:101370006B071E430B00ED08134300D1E8E5802303
:101380001B031D4206D0C808184203D10500D60829
:1013900049070E43730FF600F6085B071E43D7E5B7
:1013A0000D00D208E1E56346DE086B071E43ED0839
:1013B000002F00D1CCE580231B031D42EAD0CF08CB
:1013C0001F42E7D1D608490704003D000E43E1E77C
:1013D00023006EE618002E002038C640202B05D0D2
:1013E0004020C31A9D4063462B439C466046431EE3
:1013F0009841304395E720210023091A0EE5002388
:10140000002F00D1BAE50D00904676E547461F4310
:1014100000D140E61D00C44627E601226244904602
:101420001E0073E4C9087F0702230F4315097BE6FA
:10143000531C98460D003E0068E4D6084B071E4337
:10144000CD0885E5030057E7114BD2082B405F0715
:1014500017435A02120B01236FE43300B8464CE5E0
:101460004346DA08330080E532420AD0084B0400D4
:101470001A40674601235BE4013290460D001E00CE
:1014800044E4DB0857071F4304000023D5084BE65C
:10149000FFFF7FFFF0B5DE46454657464E46E0B5B6
:1014A00087B0009201930B031B0B9B46CA0F4B00A6
:1014B000040080465B0D029200D1BFE08F4A934248
:1014C00038D05946420FC9000A438021090411430C
:1014D000C20090468A4A894692469A4400230024D4
:1014E0000393009E019F3B031B0B7A0030009B4639
:1014F000520DFD0F002A00D17FE0804B9A426ED042
:101500005946730FC9000B438021090419438B46C8
:101510007B49F3008C46514662448A1A9246002168
:10152000029E6E40F6B20F2C00D9F9E0754AA40075
:10153000125997465A460243914600D0B6E09A4661
:101540000223904608240393CBE72E0000210023BA
:10155000002288461B051343F60733434046190013
:1015600007B0F0BCBB46B246A946A046F0BDCB468C
:101570004346029D0399022900D1FAE1032900D1D3
:10158000A1E00129E1D0604A524490464446002C33
:1015900000DC00E25A0704D00F221A40042A00D0CF
:1015A0007FE22E00DA085B46DB0106D55946574B31
:1015B000802419408B46E4005444554B9C4209DC7E
:1015C0005B465B07134398465B4664055A02120B61
:1015D000630DBFE7002100228846484BBAE75B460F
:1015E000009A13434B4A9446E244002B59D10222FD
:1015F000144300220221934692E75B46009A13436C
:1016000049D05B46002B00D1A4E15846FEF7B4FF59
:10161000030002000B3B1D27009EFB1A11005846D9
:10162000DE4008398840330003439B46009B8B40D3
:10163000394952448A460021924471E75B4603438C
:10164000994621D05B46002B00D171E15846FEF748
:1016500093FF0B235B429C460200844466461D2395
:101660009B1B260011005846DE4008398840330095
:101670000343994623008B409846284B00249B1A2D
:101680009A46002303932CE7002398469A46013399
:101690000424039325E701221443002201219346E9
:1016A0003EE7032303211C43330039E79A46032313
:1016B000D9460C24039314E7002380229846002681
:1016C0000E4B120346E78022594612030A431203C7
:1016D00098462E00094B120B3CE780224946120324
:1016E000114202D059461142F0D080224B461203DB
:1016F0001A431203029E014B120B2BE7FF07000057
:1017000001FCFFFF58FA0000FF030000FFFFFFFE8F
:10171000FE07000001F8FFFFF30300000DFCFFFFD0
:10172000CB4500D2FAE000D1F5E0012252429446C6
:101730000022444648469046E2445A461F0E120292
:101740001B020293130C994617433B041B0C49469A
:101750000093FEF7E7FD009A0B044243210C0500BD
:1017600019438A4207D9C919013D8F4203D88A42D9
:1017700001D9851EC919881A4946FEF7D3FD009A7A
:10178000240442430904240C03000C43A24204D95C
:10179000E419013BA74200D8F7E00299A01A2D04F2
:1017A0000C0C09041D43090C2A0C2B04AB460D003C
:1017B0001B0C5D43059163435143049462435B18E2
:1017C0002C0CE318994203D9802149028C466244CB
:1017D000190C2D041B042D0C8A185D19904200D29F
:1017E00087E000D182E043465D1BA8459B41801AFB
:1017F0005B42C01AB14B534498461C00874200D14B
:101800000CE14946FEF78EFD0200009B03905A430F
:101810000B04290C19438A420AD90300C919013B58
:1018200003938F4204D88A4202D9831E0393C919B5
:10183000881A4946FEF776FD0A00120494462A04E7
:1018400065460099120C414303002A43914207D98F
:10185000D2190138974203D8914201D9981ED21962
:10186000039B521A1B0403430598190C05008C4670
:101870001904090C4D438946614600956546484365
:1018800004994D43AC464D464D432918009D2D0CFF
:10189000A9464944884203D9802040028146CC446D
:1018A000009D080C2D0409042D0C60444D19824242
:1018B0000FD30BD001221343814A92456CDB1A1DD2
:1018C0009A429B415B42D2089B446CE6002D00D1BA
:1018D00093E0591EBA188C46BA4200D285E0824283
:1018E00000D2C7E000D1D5E00B00E3E7A84500D364
:1018F00079E75B46591E029B9C46E0441C009845D4
:101900009B415B42DB19C018874238D2824278D8AB
:1019100075D08B4667E7434500D906E74A46D407AA
:1019200050084246520814434246D207904604E704
:10193000FEF722FE15239C468444020063462032B3
:101940001C2B00DC8AE623000838834099460023DC
:10195000984692E6FEF710FE03000200153320328F
:101960001C2B00DC57E600990838814000238B4689
:101970005EE600212E0000228846524BEAE58742AF
:10198000C7D14445C2D98B462DE7A24200D804E70F
:10199000831EE41901E72E0001224146521A382A1B
:1019A00000DDD3E51F2A3FDC47481C005044594660
:1019B00083408140D440581E834121430B43594604
:1019C000D1400A00590709D00F211940042905D038
:1019D000191D99429B415B42D2180B00110268D538
:1019E0000021012300228846B4E50B00824200D08A
:1019F00060E7029A954200D05CE73500C6E54545B0
:101A000087D902235B429C46029BE3449C46E04408
:101A100098459B415B42DB19C018E4E6002B36DD9C
:101A2000012300229B44BEE51F2140464942091A7A
:101A30005846C8400100202A04D05846234A524440
:101A4000904003435A1E934107200B43010000229C
:101A50001940184209D00F21194004291FD0181D20
:101A600098428941030049424907DB080B439846E5
:101A700000236FE50299023B49008C4602998C4590
:101A800089414942C919521861460291AEE70123C2
:101A90005B4281E70299A942ECD36346A9E70021A2
:101AA000E3E71A1D9A429B415B422E00D2089B44F9
:101AB00079E551075202120BD7E7C046FF03000039
:101AC00002FCFFFFFF0700001E0400003E040000B0
:101AD000F0B557464E464546DE46E0B51F000B03BF
:101AE0001B0B16009846CA0F4B000400924685B0A7
:101AF0005B0D00D1C2E1CC4A934200D128E14146BE
:101B0000420FC9000A43802109041143C2009146D3
:101B1000C64A884693469B440023002501933C0314
:101B20007A00FB0F3000240B520D009300D185E1A9
:101B3000BD4B9A4200D160E1BC4B9C466244934449
:101B40000A2D00DD14E1730FE4001C4380231B0405
:101B50002343F0005246009900264A409246022D47
:101B600011DD0122AA40A6211400C9000C400A423E
:101B700000D0FDE0902189000A4200D0D4E1882104
:101B8000114200D0EFE049464A460904140C090C02
:101B9000020C0F0015000004000C6543474301953B
:101BA000B9462F000D0006005543AC464D4666432E
:101BB0002D0CB4446544AE4205D93E0080277F0217
:101BC000BC46664401964F463F043F0C2E0C2D0444
:101BD000ED1902951D0C1B041B0C00951D001F0028
:101BE00065434F43AC46009D69436C433D0CA94699
:101BF000614449448C4503D980256D02AC46644458
:101C00003F040D0C3F0C0904C919AC467518039527
:101C100045462E04360C2F0C35004543784380464C
:101C200038006444AC462D0CA946504372434244EC
:101C30004A44904503D980256D02A8464044150CBE
:101C4000A84665462D042D0CAC4635005D431204B4
:101C50006244AC467B43009D404498462B006E4353
:101C600065467B4346442D0CAD191F000093A845E3
:101C700004D980235B02984647440097039B019E4A
:101C800098462B044644984663468E4289411B047D
:101C90001B0C4344B61849421B195F1896429241E7
:101CA000BC465242804691468C458941A3429B41A5
:101CB000E044C14449425B42914592410B43804517
:101CC00089412D0C494252420A435B199B18009AE4
:101CD000029994464A4663445B02D20D1A439046E9
:101CE00072020A43511E8A41F60D16434A465202B9
:101CF0001643B146DB0154D44D4A5A44002A00DC55
:101D000018E133005B0715D00F215B4631400429F1
:101D100010D04946081D48458941814649428844BA
:101D20004146C90106D54146424A114080228846B3
:101D3000D2009A18404B9A4200DD2BE141464B46B7
:101D40004C07DB081C4352054B021B0B520D1AE0DB
:101D500042460243914600D0E0E09B460223904673
:101D600008250193DBE6009A984692468146019643
:101D7000019B022B00D10DE1032B35D0012B1BD190
:101D800000220023002412051A435346DB071A439E
:101D90002000110005B0F0BCBB46B246A946A046E3
:101DA000F0BD01227308324013434246D207134369
:101DB000994643465B08984680225B46D2005A44C7
:101DC0000133002A00DCB6E049464907A8D00F21BC
:101DD0004846014004299CD1A2E70F2D00D1FDE027
:101DE000009BA0469A46B146802342461B031343FC
:101DF0001B034C460C4A1B0BC5E70B4933008C46B2
:101E00002343E344002B77D1022129430A29AFDC85
:101E10005046009C60408246002D00D10EE10D002E
:101E2000002002269DE6C046FF07000001FCFFFFE0
:101E3000FF030000FFFFFFFEFE0700002300334307
:101E40004BD0002C00D1BBE02000FEF795FB030037
:101E500002000B3B1D20C31A3000D84011000300C4
:101E6000300008398C408840234359468A1A784903
:101E70008B4693440A2D00DC6CE679E74346034326
:101E8000994623D04346002B00D187E04046FEF719
:101E900073FB0B235B429C460200844411004046C6
:101EA000083988401D23804660461B1A2000D84010
:101EB000030040460343984623008B409946644BF9
:101EC00000259B1A9B460023019328E60023984691
:101ED0009B4601330425019321E6012215430A2D77
:101EE00000DD45E7524600994A409246022D00DC4B
:101EF00046E70020012634E603231D430A2D00DDBA
:101F00006BE75346009A882153400122AA409A4623
:101F100003262300114200D135E624E79B46032324
:101F200081460C250193FAE500239A468023494A0D
:101F30001B0328E75B460121891A382900DD1FE7CA
:101F40001F295ADD1F204042821A4046D0402029D6
:101F500008D0414A9446424663449A4013004A4698
:101F60001A4391464A460721531E9A410C000243E8
:101F700000231440114209D008311140042960D0D7
:101F8000111D9142A4410A0064426407D20814431F
:101F90000022F8E6002300242E4AF4E6FEF7ECFACD
:101FA00015239C4684440200634620321C2B00DC2F
:101FB00074E70023994623000838834098467EE75B
:101FC000FEF7DAFA03000200153320321C2B00DC86
:101FD00040E7330008388340002046E7802342462C
:101FE0001B031A4200D1FFE61C4200D0FCE6009A17
:101FF000234392463400174AC5E6184A40469446A1
:102000004A4663449840CA4010434A469A40531E89
:102010009A4143460243CB40510709D00F2111405A
:10202000042905D0111D9142924152429B180A0089
:10203000190208D5012200230024A4E6002300246D
:10204000A1E60024A2E75C075B021B0B9EE7C046EB
:102050000DFCFFFFFF0700003E0400001E0400000F
:10206000F0B54E464546DE465746E0B583B0009093
:1020700001910D034E000199760DCC0F690A009D68
:102080006D0F0D43009900920193C8001903019B45
:10209000CB4A5B005B0D9946019B8346DB0F98465C
:1020A0004B0A0099490F1943009BDB009C469A4656
:1020B000914500D173E0012347465F404B46B84647
:1020C000F31ABC4216D0002B00DC9AE24F46002FD8
:1020D00000D082E067460F4300D13AE15F1E012B3A
:1020E00000D1A4E2934200D12EE1382F00DD43E27B
:1020F0003B003EE1002B00DCD7E24F46002F00D032
:10210000F8E067460F4300D123E15F1E012B00D1A9
:1021100057E2934200D117E1382F00DC04E380221C
:102120001204154200D1AAE31E0015000027A44B9B
:1021300001369E4200D103E10122A24B3A401D40EC
:1021400079081143EA070A436D08530709D00F23A2
:102150001340042B05D017003A1DBA42BF417F42FD
:10216000ED192B0200D477E3954901368E4200D158
:10217000E6E0944973050D405B0D6907D2086D02D6
:102180000A432D0B1B052B43E407234310001900C2
:1021900003B0F0BCBB46B246A946A046F0BD8A4B90
:1021A000F21863460B434CD0444550D0002A6CD003
:1021B000002E00D17DE1634644464F07DA081743FD
:1021C000C8083A00024300D1CDE080252D03054325
:1021D0002D033A007A4B2D0BD4E7964200D1B3E0A1
:1021E000382B00DCC2E0471EB842804140422D1A25
:1021F0002B02B1D50127754D7F422800FEF7BCF9AF
:102200000838202339001A1A8540D14087402943D5
:10221000B04200DA45E1801B01301B1A3D009F40AF
:10222000C5407A1E97410A009A402F433A43C14065
:1022300013000D0000260B4300D086E70022002586
:10224000A0E7474601235F40B8464445AED1002A87
:1022500000D1EFE0002E00D088E14B462A00024377
:1022600000D1A0E25A1E012B00D1B7E2544EB34276
:1022700000D17BE1382A00DC12E380252D042942BD
:1022800000D112E31E00002751E7514A731C13428C
:1022900000D0F4E062462B000A430343002E00D036
:1022A00074E1002B00D123E2002A00D1E0E0634674
:1022B000C71AB842924180266B1A52429B1A3604C2
:1022C000334200D1C1E26346181A844592414D1B46
:1022D0005242AD1A0124020043462A431C40002A00
:1022E00000D1DBE0354200D1E9E2364B02001D406F
:1022F000012342E7964227D0382B00DD11E18022EE
:10230000120411431F2B00DDA1E120220F00D21A7D
:10231000914697406246DA401743B84662464F46B8
:10232000BA40D940571EBA4147466D1817433F1867
:102330008742804140422D182B0200D5F7E634E059
:102340003300002500221DE7C0086F070743E80897
:1023500037E7C7086A071743194AE808934200D1CC
:102360002FE73A00D8E0164B00250BE78022120435
:1023700011431F2B00DDB7E020220F00D21A914637
:1023800097406246DA401743B84662464F46BA4025
:10239000D940571EBA4147466D1A1743C71BB8426A
:1023A000804140422D1A2B0216D47B0700D179E2DE
:1023B0000F233B40042B00D0CEE63300FF08C9E7D3
:1023C000FF070000FFFF7FFF01F8FFFFFFFF7F0017
:1023D000FE070000444601266D026D0A002D00D064
:1023E0000BE73800FEF7C8F8030018301F2800DCA0
:1023F00007E73900083B9940864200DD87E0831BF0
:10240000581C1F2800DC14E20A001F3BDA40202879
:1024100005D040231B1A99404B1E99410A43002ABC
:102420003CD00026530700D091E61700350033005A
:10243000FF088FE7CA4A731C13427AD12B0003436B
:10244000002E00D092E162460A43002B00D1F4E155
:10245000002A0DD06346C718874280416D1840425C
:102460002D182B0200D512E23A00BB462A4315D0A4
:102470005B466A07DF083A430023E8084CE06346FE
:10248000C71AB84292416B1A52429B1A1A0200D5DF
:1024900087E03A001D001A43A0D100240023002544
:1024A00070E6B04D361A0D407B0700D080E7330050
:1024B00084E74B462A0002437ED05A1E012B00D1EE
:1024C0001FE1A94CA34200D198E1382A00DC9CE12D
:1024D0006246571EBC45924152428D1A44461E0028
:1024E0002A0200D586E637E61A000F00203AD740C8
:1024F000B846202B05D04022D31A994063460B439F
:102500009A4657467B1E9F4143461F4346E7954ADE
:10251000331A11404A07C80805035B052D0B5B0DF4
:1025200030E680231B041D4200D1FBE01D00002784
:10253000FDE58D4A934200D103E76246821882424C
:102540008041691840420818C707520817434508D8
:10255000520700D4AEE10F221E003A40042A00D0F8
:10256000FAE5FF086A073A430009D5E763464F07D3
:10257000DA081743C80824E6471EB84280414042A3
:102580002D1A1E002A0200D534E6E5E5002B00D006
:102590000DE1002A00D069E180250024724B2D0353
:1025A000F0E563461F1ABC459241012443464D1B8A
:1025B0005242AD1A1C4011E7624644460D00D7084E
:1025C000C8E66346C6188642804169184042091829
:1025D0000B0200D40CE1634B70081940CB07034396
:1025E0004A08400700D43BE10F201840042800D1DE
:1025F00036E11F1D9F42AD416D420223AD18FF0819
:10260000A8E6002B00D140E64B469B1B002E00D1D4
:1026100050E7382B2EDD63465F1EBC459241524287
:102620008D1A44464E462B0200D5E3E594E56346F9
:10263000C71AB84280416D1A40422D1A2B0200D5AC
:10264000C9E66A07FF0801233A43E80864E71A006D
:102650000F00203AD740B846202B05D04022D31A8D
:10266000994063460B439A4657467B1E9F4143461B
:102670001F435CE680223C00120415431F2B26DC1E
:1026800020222F00D21A060090409740DE40421EC2
:102690009041DD4037430743491B6346DF1BBC4580
:1026A000924152424E468D1A7DE6002B00D1C1E682
:1026B0004B469B1B002E00D1D0E5382B36DD802504
:1026C0002D04294200D1DDE04E4600272FE51A00F7
:1026D0002E00203AD640202B05D04022D31A9D4010
:1026E0002F000743BB465F467B1E9F413743D4E71D
:1026F000002A00D1D1E6012443460D00E3461C40E8
:10270000B6E663461F1ABC4592414D1B5242AD1AB4
:102710002B0200D55EE66A07FF08444601233A43D0
:10272000E808F9E6471C17E53B00EBE580221204B8
:1027300015431F2B6CDC20222F00D21A060090407C
:102740009740DE40421E9041DD4037430743491920
:1027500067446745924152424E465518ECE5C046E3
:10276000FE070000FFFF7FFFFF070000002B00D1E6
:10277000FCE6C7086B071F436346E8080B4300D11C
:102780001FE580231B03184207D0CA081A4204D150
:1027900063461000DF0849070F437B0FFF00FF0867
:1027A0005B071F430DE562460D00D708D2E5C70859
:1027B0006B071F43E808002A00D102E580231B03B2
:1027C0001842EAD0CA081A42E7D163460124DF085A
:1027D0004346490710000F431C40DEE76044604554
:1027E000924169185242891806000B0200D5F2E6A0
:1027F0004A07F60801233243C8088DE66346DF081E
:102800004B0744461F43C808DBE44446130035E742
:102810001A002E00203AD640202B05D04022D31A91
:102820009D402F000743BB465F467B1E9F413743B9
:102830008EE7202300271B1AF5E40023002A00D18D
:1028400092E567460D00FF0884E53A001A4300D17F
:1028500023E61D00BB460BE617003300FF0879E5B1
:10286000DB0852071A430809022355E66346012490
:10287000DA0843464F071743C8081C40A1E41E006E
:10288000471C69E467460D004E46013764E40F4B70
:10289000FF081D406A076D0201233A432D0B71E4C6
:1028A000130046E73300FF0854E567460D001E009D
:1028B000013751E46A07FF083A4300092CE6C008D3
:1028C0006A0702430023E80826E6C046FFFF7FFFB1
:1028D0000B00020070B5164D0C0382B049000020B9
:1028E00000920193240B490DDE0FA94204DD11482B
:1028F000814203DD104BF01802B070BD8020400310
:1029000020430E4C641A1F2C08DD0D4B5B1AD84077
:1029100003005842002EEFD11800EDE7094B009A52
:102920009C46030061448B40E2401343F1E7C046FC
:10293000FE0300001D040000FFFFFF7F33040000C2
:1029400013040000EDFBFFFF70B5002816D0C3177D
:10295000C5185D40C40F2800FDF70EFE104B1B1A72
:102960005B055B0D0A2814DC02002E001532964030
:102970000B22121AD5402D032D0B03E00024002357
:10298000002500261B052B43E407234330001900D4
:1029900070BD0B3885402D0300262D0BF2E7C04695
:1029A0001E04000010B5041E10D0FDF7E5FD0E4B0F
:1029B0001B1A5B055B0D0A280FDC0B222100121A83
:1029C000D14015300A038440120B01E0002300229D
:1029D0001B0513432000190010BD22000B38824054
:1029E00012030024120BF3E71E04000070B542022C
:1029F0004300C40FFE201B0E591C550A08420CD080
:102A0000E02189008C466D07120B63441B051343BC
:102A1000E40723432800190070BD002B14D1002DBA
:102A20001BD02800FDF7A8FD0A281CDC0B232A0078
:102A30001B1ADA40030015339D400E4B12031B1A7C
:102A40005B05120B5B0DE1E7002D09D0130B802213
:102A500012031A436D07084BD8E700230022D5E77D
:102A60000022054BD2E703002A000B3B9A400025C9
:102A7000E3E7C04689030000FF070000844610001A
:102A800062468C461900634600E0C0461FB500F060
:102A9000F5F8002801D40021C8421FBD10B500F090
:102AA00037F84042013010BD10B500F0E7F80028BB
:102AB00001DB002010BD012010BDC04610B500F0A4
:102AC000DDF8002801DD002010BD012010BDC0464A
:102AD00010B500F063F8002801DC002010BD0120D3
:102AE00010BDC04610B500F059F8002801DA0020EA
:102AF00010BD012010BDC04610B5002903D1FDF75F
:102B00003BFD203002E00800FDF736FD10BDC04659
:102B1000F0B55746DE464E464546E0B50D0004008A
:102B2000E80F83460903D80F090B82461A488C46E2
:102B30001F0369005E00490D3F0B760D81421AD0DC
:102B4000864211D00120B1420FD1BC450DD1A24225
:102B50000BD1D3451ED0002907D1614611430A008D
:102B6000531E9A41100000E00120F0BCBB46B24663
:102B7000A946A046F0BD01208E42F6D161463943F8
:102B80000F0017432743F0D15B465246981A431E65
:102B90009841EAE70020E8E7FF070000F0B5574654
:102BA0004E464546DE46E0B50D000E034900490D90
:102BB0008A46DF0FE90FBC4683B02F4F04008046E2
:102BC0000191580019039146360B090B400DBA4587
:102BD0001DD0B8420DD05746002F2AD134430028CB
:102BE00024D10A4336D0002C41D163465800013825
:102BF00015E0114338D15346002B01D12643F4D0C0
:102C0000019B634507D1019B5800013807E026432B
:102C10002AD1504521D00120019B5F42384303B0A7
:102C2000F0BCBB46B246A946A046F0BD002CDCD0A5
:102C3000E6E70028EFD0019B6345ECD18245EADC52
:102C4000E1DB8E42E7D8DED1C845E4D80020C84594
:102C5000E5D2D8E7002CE2D0DDE7114304D1019B97
:102C60006345D8D10020DAE702204042D7E7019B34
:102C70006345E6D0CFE7C046FF070000F0B55746F2
:102C80004E464546DE46E0B50D000E034900490DAF
:102C90008A46DF0FE90FBC4683B02E4F0400804602
:102CA0000191580019039146360B090B400DBA45A6
:102CB0001ED0B8420DD05746002F27D134430028EC
:102CC00033D10A4334D0002C40D163465800013838
:102CD00015E0114312D15346002B01D12643F4D005
:102CE000019B63451DD00120019B5F42384306E0F4
:102CF000264303D15045F6D111431CD0022003B026
:102D0000F0BCBB46B246A946A046F0BD0028EAD0BA
:102D1000019B6345E7D18245E5DC02DB8E42E2D8C8
:102D20000ED0019B58000138E9E7002CCDD0D7E741
:102D3000002CE4D0D7E7019B00206345DFD0D2E729
:102D4000C845D0D80020C845D9D2EAE7019B6345E1
:102D5000E4D0C8E7FF07000010B5034B0100186876
:102D600000F030F810BDC046000C002010B5034B39
:102D70000100186800F0FCF810BDC046000C0020EF
:102D800070B50F4C0E0021680500002902D108F033
:102D9000E1FF20603100280008F0DCFF431C03D174
:102DA00001246442200070BD0323C41C9C43A04244
:102DB000F8D0211A280008F0CDFF0130F2D1EFE75A
:102DC00080140020F7B50322CB1C93430833050081
:102DD0001F000C2B34D20C27B94233D8280000F046
:102DE00071F8374E73681C00002C2FD13900280071
:102DF000FFF7C6FF0400431C5FD174680094009B7A
:102E0000002B4AD19C4252D023682800E318009935
:102E1000019308F09FFF019B834248D1236828005B
:102E2000FF1A3900FFF7ACFF013040D02368DB19EF
:102E3000236073685A68002A33D1009B736019E0DD
:102E4000002BC9DA0C232B600020FEBD2168C91BB2
:102E500020D40B290AD9E2192760A34204D1726059
:102E600063681160536005E05A60F9E76268A34245
:102E70000ED17260280000F026F8200007220B30E7
:102E8000231D9043C21A9842DFD01B1AA350DCE7DF
:102E90005A60EFE723006468A6E7009C636800932C
:102EA000ADE71A005B68A342FBD10023DAE70C23ED
:102EB00028002B6000F007F8C6E70760DAE7C04695
:102EC00080140020704770470022034B1B68983322
:102ED00018605A607047C046000C002010B5084BBF
:102EE000084A1C68084B983420686168FDF782FB2B
:102EF000012200238018594103C44800400810BD36
:102F0000000C00202D7F954C2DF4515830B5002435
:102F10000139A24201D1002005E0035D01340D5DBD
:102F2000AB42F6D0581B30BD10B5884202D98B1881
:102F3000984209D300239A4208D0CC5CC454013390
:102F4000F9E7013A8B5C8354002AFAD110BD0300E3
:102F50008218934200D1704719700133F9E70023BA
:102F600010B59A4200D110BDCC5CC4540133F8E7CF
:102F700070B50500002910D00C1F2368002B00DA63
:102F8000E4182800FFF79EFF1D4A1368002B05D1A7
:102F9000636014602800FFF796FF70BDA34208D954
:102FA000206821188B42F3D119685B6809182160E9
:102FB000EEE71A005B68002B01D0A342F9D9116833
:102FC0005018A0420BD12068091850181160834294
:102FD000E0D118685B68411811605360DAE7A042DD
:102FE00002D90C232B60D5E7206821188B4203D12E
:102FF00019685B680918216063605460CAE7C046BD
:10300000841400207047704710B50BF0D3FC0020EB
:1030100010BD0000094B0A491A780A4B022A08D150
:10302000022806D1013A1A700A700022064B1A8053
:10303000704700220A701A70FAE7C046B8130020E1
:10304000AE1C0020B21C0020B01C002010B50BF0FC
:103050002BFA10BD10B50BF09BFA10BD10B5044C47
:103060002388002B03D00BF01FFA0023238010BD10
:10307000E02A0020002210B5034B1A80034B1A707F
:103080000CF084F910BDC046AA1C0020AC1C002026
:1030900030B505000C000120032D0BD8052909D8F7
:1030A0000F2A07D806216943091909018A188240A5
:1030B000014BD05A30BDC0469AFB0000012070473A
:1030C00010B5FFF7FBFF10BD0120704710B5FFF7EB
:1030D000D1FF10BD704710B5FFF7FCFF10BD000019
:1030E00013B5019110496B4609780090002915D15C
:1030F0005B79002B0DD0002A0BD000F067FD040097
:103100000100009800F03AFD2000009901F068FBF2
:1031100016BD009800F046FD0400F5E7009800F0A9
:1031200055FD0099F2E7C046CC15002010B504000B
:103130000A000188408800040843A188FFF7D0FFF7
:1031400010BD10B504000121FFF7F0FF2100FFF7CB
:10315000B7FF10BD10B504000021FFF7E7FF210005
:10316000FFF7B9FF10BD0120704710B5FFF7FBFF57
:1031700010BD10B5040000F005FC2000FFF7F5FFBE
:10318000FA2007F084FA10BD10B50120FFF7F1FF17
:1031900009F082FA10BD10B50020FFF7EAFF09F030
:1031A000BBFA10BD70B501210500FFF7BFFF290074
:1031B000040005F03FF8002842D029002000FFF766
:1031C00085FF00283CD02900200004F03FFF0028A4
:1031D00036D02900200004F005FB002830D029005B
:1031E000200004F0D5FA00282AD02900200004F09D
:1031F0003FF9002824D02900200004F07BFF00289C
:103200001ED06B79002B0CD0144B9C421FD00CD8D5
:10321000134B9C4218D0134B9C4213D0033B9C424F
:103220000CD02800FFF750FF0BE00F4B9C4211D051
:103230000E4B9C42F5D101F03BF8F2E7FFF7A4FFFB
:10324000002070BD01F050F8FFF7A5FFF8E701F08E
:103250003BF8E6E701F03DF8E3E7C0465A7C0000A2
:10326000017C0000037C00005B7C00005C7C0000B3
:1032700010B500F01EF8002003F046FF05F045FAF7
:1032800010BD704701207047704770B5051CFFF7EF
:10329000F9FF041E02D0281CFFF7F6FF200070BDC6
:1032A000704710B50400FFF7ECFF201CFFF7EDFF9F
:1032B00010BD10B505F01EF9FFF7F3FF10BD0000BB
:1032C00010B505F017F9074B04001A78824207D0B1
:1032D000187005F095FA044B18602000FFF7E1FF25
:1032E00010BDC046C4150020C815002030B50B0A1B
:1032F00085B0DBB26C4600900191002B01D000F04C
:1033000043FF00236A46D381009B02AD0293A3884A
:10331000AB80DBB2002B05D10298696800F072FE29
:1033200005B030BD2800FFF70CFF0028F4D1F7E707
:10333000037910B5012B02D1008800F069FC10BDA3
:1033400010B5002904D004F0A3FB04F073FC10BDF9
:1033500004F0FCFBF9E7000010B5002812D0822829
:1033600011D105F0D1F880070CD4392005F022F9ED
:1033700000F0BCFE502007F08AF939200BF0AAFFBC
:1033800000F0B4FE10BD83280DD105F0BDF8C007D4
:10339000F8D4532005F00EF900F0A8FE642007F0E1
:1033A00076F95320EAE784280DD105F0ADF84007FF
:1033B000E8D4472005F0FEF800F098FE642007F0FE
:1033C00066F94720DAE7031FDBB2A02B02D805F02D
:1033D000F1F8D5E703002033DBB2072B07D807232A
:1033E000034001209840C0B200F09CFEC8E70300F3
:1033F0005B33DBB2022B04D8243880B205F0AAF884
:10340000C0E703005833DBB21A2B05D8074A5B002C
:10341000985A05F0B7F8B5E703003333DBB2122B47
:10342000B0D804F035FB04F005FCABE79AFE0000D1
:1034300010B500280FD082280ED105F065F880075E
:1034400009D5392005F0B6F800F050FE39200BF010
:1034500041FF00F04BFE10BD83280AD105F054F85F
:10346000C007F8D5532005F0A5F800F03FFE532023
:10347000EDE784280AD105F047F84007EBD547204F
:1034800005F098F800F032FE4720E0E7031FDBB2BA
:10349000A02BDCD903002033DBB2072B07D807238E
:1034A000034001209840C0B200F04AFED1E703007B
:1034B0005B33DBB2022B03D8002005F04BF8CAE7E0
:1034C00003005833DBB21A2B03D8002005F05AF85A
:1034D000C1E703003333DBB2122BBCD804F036FB58
:1034E00004F0A8FBB7E770B50D000400FFF734FF48
:1034F000281E00D1012007F0CAF82000FFF798FF2E
:1035000070BD002110B5392800D15031FFF7EBFF15
:1035100010BD10B5002803D000F004FE00F0E6FD59
:1035200010BD10B5002803D000F00AFE00F0DEFD4B
:1035300010BD0000F0B585B087790C1C457902906C
:1035400000F0CAFD23043F0901900393002828D00E
:103550000195002D25D023041B0E0F221900914345
:1035600040290FD0E1B20A0000202032D2B20190EF
:10357000072A16D91F229343202B03D1012910D9E2
:1035800087420ED00022A94B01925B785B0708D5D9
:10359000022000F05DFE00F09FFD01234340DBB2FE
:1035A00001932304180F0B283ED8FCF72BFE0C00C8
:1035B0000C0056005600B200C7003D003D00CC0094
:1035C0002C014101410126052304360F1B0E0F2B50
:1035D00000D93601E4B2002D12D0002E0BD023000A
:1035E0002033DBB23000072B01D9002C05D100F0CD
:1035F00099FD00F07BFD200050E000F0B5FDF8E7FC
:103600002000FFF715FF002E0ED023002033DBB281
:103610003000072B01D9002C02D100F091FD01E010
:1036200000F0AAFD00F062FD019B002B13D000F01A
:103630004BFD012302001A4018420CD1029B5A7123
:1036400000F03CFD00F02AFA029800F063F900F067
:1036500035FD00F02FFA05B0F0BD0F22230426053A
:103660001B0E360F9343202B00D03601E4B2002C02
:1036700006D0012C36D0002D3FD0002F1CD0BAE749
:103680006A4B5B785B0713D4002D0AD0002E04D060
:10369000300000F047FD00F029FD0020FFF75CFE40
:1036A000C2E72800FFF7C4FE002EBDD03000B4E70B
:1036B000002D0BD0002F03D13000FFF72AFFB3E716
:1036C000012FB1D1300000F07FFDADE7002FABD16D
:1036D0003000FFF726FF300000F084FD300000F0DE
:1036E0005FFDA1E7002D02D0052F9DD8E4E7042F50
:1036F0009AD83000FFF715FF96E7002FF9D0502039
:10370000392C00D0012006F0C2FF2000FFF790FE08
:103710008AE72005800F0AD0012800D084E7002026
:10372000854201D0A005800D04F02CFF7CE7002D20
:1037300001D0A005800D04F00DFF75E72900E0B26F
:10374000FFF7FEFD70E723049B019B0F2BD1002D9B
:103750001BD1102123065B0F9B002207DBB2120F47
:103760009A400800D2B22040214203D00F20984056
:10377000C043C0B22405A40F1043022C0DD0032C6B
:103780000ED0012C06D000F05BF904F0B3FEFFF779
:1037900088FD49E700F04AF9F7E700F05BF9F4E744
:1037A00000F03FF9F1E7A3059B0FDAB2002D1ED020
:1037B000DB07EAD5102123065B0F9B002207DBB253
:1037C000120F9A400800D2B22040214203D00F20AD
:1037D0009840C043C0B22405A40F1043022C0CD063
:1037E000032C0DD0012C05D000F086F9CDE7012A7D
:1037F000CBD9DFE700F076F9C7E700F087F9C4E737
:1038000000F038F9C1E7E6B22405240F002D06D0F8
:10381000200000F043F93000FFF77BFEB5E73000F1
:10382000FFF77FFE200000F045F9AEE7FE300020F4
:10383000E6B23000F038042840D8FCF7D9FC032465
:103840000F162000002D06D0042F9ED8E004C00ED5
:1038500000F03CF999E7052F97D8F7E7E004C00E90
:10386000002DE0D100F01AF98FE7002D04D0E0041C
:10387000C00E00F00CF988E700F004F985E71C4B56
:103880005B785B0704D4E004C00E002DCBD0E9E7E1
:10389000002D09D0E404E40E200000F0FFF803211D
:1038A000200000F0B3FC70E7012000F0D1FC012FF4
:1038B00000D86AE7022000F0CBFC66E7002D08D0B4
:1038C000002F03D03000FFF747FD5EE7E004C00E95
:1038D000C8E7002F09D05020392E00D0012006F073
:1038E000D6FE3000FFF7A4FD4FE7E004C00E9AE7D4
:1038F000FE30002070B504002188407900F092F974
:10390000051C00F00DF900F08BF8291C2000FFF7D2
:1039100011FE70BD037910B50400002B11D0FFF724
:1039200041FC00280ED100F0D7FB002809D06379B4
:10393000002B06D0074B5B785B0702D5022000F016
:1039400087FC10BD2000FFF7D5FF2000FFF702FC29
:10395000F7E7C046FE30002010B5002004F0FAFD65
:10396000002004F00FFE00F00FFC00F0BFFB04F09D
:103970007BF904F05FF910BD10B504F051FEFFF7BC
:10398000EBFF10BD10B500F0E9FBFFF7F5FF10BD30
:10399000C2B20004000F062818D00F2306280ED844
:1039A0000E3003400020012B08D80120F02A05D05A
:1039B00007D80020E72393424041C0B27047063049
:1039C000EFE7F43A100043425841F6E71000F138AF
:1039D00043425841E721002391425B411843EDE700
:1039E00003000279002010B5824204D0188800F04C
:1039F0000FF9FFF7CDFF10BD82B002B0704782B063
:103A000002B07047704710B5FFF7FCFF10BD000013
:103A100010B5FFF7F8FF014B187010BDF21500202C
:103A2000704710B5FFF7F4FF10BD000010B5034B51
:103A30001B781843FFF7ECFF10BDC046F2150020BD
:103A400010B5034B1B781840FFF7E2FF10BDC046CE
:103A5000F215002010B5034B1B785840FFF7D8FF34
:103A600010BDC046F2150020704710B5FFF7FCFFEF
:103A700010BD000010B5FFF7F8FF014B187010BD26
:103A8000F115002010B50020FFF7F4FF10BD012351
:103A9000834010B5D8B2FFF7EDFF10BD012383407E
:103AA00010B5034A10781843C0B2FFF7E3FF10BD0A
:103AB000F11500200123834010B5034A1078984384
:103AC000FFF7D8FF10BDC046F11500200123834049
:103AD00010B5034A10785840C0B2FFF7CBFF10BDB5
:103AE000F115002010B5034B1B781843FFF7C2FFF8
:103AF00010BDC046F115002010B5034B1B781840CF
:103B0000FFF7B8FF10BDC046F115002010B5034BFC
:103B10001B785840FFF7AEFF10BDC046F1150020DE
:103B20007047032370B50126CC086343D2180723DE
:103B3000350019408D400021EDB20300CB40545CAC
:103B400033405B4263402B405C40545401310329B5
:103B5000F3D170BD30B50724032300220440C00810
:103B6000434301251000C9188B5CE3402B40934070
:103B700001321843C0B2032AF6D130BD07B583B273
:103B800001AA10801B0A0800052B07D811780F29FD
:103B900004D81B01024AC918FFF7C3FF07BDC0467E
:103BA000CD15002007B583B201AA10801B0A0020A2
:103BB000052B07D812780F2A04D81B010249D01808
:103BC000FFF7C8FF0EBDC046CD150020F7B5032492
:103BD00001270D4A0D4B12781B7801AE1A43308035
:103BE0000092009B23413B4204D1013CF9D20025C5
:103BF0002800FEBDE5B22800316800F001FE80B269
:103C00000128F2D0F4E7C046F1150020F21500209B
:103C100007B501AB18800198FFF7D8FF019900F0B4
:103C2000EFFD0EBD13B501AB19800E4B1B78002BB9
:103C300003D00198FFF7ECFF16BD00280CD00198C7
:103C4000FFF7C4FF040001000198FFF797FF200071
:103C5000019900F0D5FDEFE70198FFF7A3FF0400FD
:103C6000F5E7C046CC15002030B504000120050062
:103C70008D4029000500954098402A00030020004F
:103C80000A43D1B2984322408A4201D11C43E0B298
:103C900030BD000010B504001300044A10780A007B
:103CA0002100FFF7E1FFFFF7E5FE10BDF115002051
:103CB00070B507250B4B1C780B4B1B78A34200D12A
:103CC00070BD0A4BE200D15A9B1858889A880004AC
:103CD0000843D988013409041143FFF790FE2C40B2
:103CE000EAE7C046F3150020F4150020F615002081
:103CF000064B10B558881A88D988000410439A8852
:103D000009041143FFF77BFE10BDC04636160020A4
:103D10001A48F8B583790F2B2BD84379002B28D07C
:103D2000174B05881A78174B46881C7807239C4642
:103D3000154FA2421DD0D300DB191979002919D0E3
:103D40001988A94216D15979002913D15988891B9C
:103D500089B2C7290ED80F241021827922400A4344
:103D600082719A79224011439971FFF7D3FDFFF7D1
:103D70009FFFF8BD634601321A40DAE7361600208D
:103D8000F3150020F4150020F6150020F7B50E4CB1
:103D90000E4B24781B7801940D4C019DAB4201D150
:103DA0000020FEBDDE00A5196F788F4205D1365D7B
:103DB000864202D16D79954203D1072501332B400C
:103DC000EBE70120EDE7C046F4150020F3150020D5
:103DD000F6150020F0B5040087B002AF06220100FE
:103DE0003800FFF7BCF8864D66792B792279002BD5
:103DF00018D1002A00D1CEE0002E00D1F7E020003B
:103E0000FFF7EEFD002800D1F1E008222100280094
:103E1000FFF7A5F82800FFF78BFAFFF779FFFFF708
:103E200067FFB8E0638801936B79019900936B8811
:103E3000CB1A00999BB2002900D1AEE0C72B00D964
:103E400086E0002A00D1A6E0AB792A8821880F2BD2
:103E500054D8914211D1002E4BD10F221340013280
:103E60001343AB71FFF744FF2800FFF753FDAB7915
:103E7000A3710025280007B0F0BD002E39D12578A8
:103E80006778320039002800FFF780FF28003200F1
:103E90003900FFF77BFF051EEBD10298FFF7B8FE54
:103EA000C3B200040F21020F032A08D8012A0FD938
:103EB000000E014211D0A2790F2A0ED8DAE706329D
:103EC0000A40012A0ED92000FFF724FD009DD1E70A
:103ED000000E014201D0002BCCD02033DBB2072BE7
:103EE000C8D9F0E7EF2BC5D90F33DBB2022BC1D90C
:103EF000E9E70123AA791343AB71BAE791420BD1E9
:103F0000002E09D1A3712000FFF704FD0822210033
:103F10002800FFF724F882E72000FFF761FD002862
:103F200065D0002E63D0AB791F2B0BD92A8804A84B
:103F30000280019A42802A798371027100224271C3
:103F4000FFF7E8FC082221002800FFF708F864E7E3
:103F5000AB790F2B0ED802987968FFF74DFD28003A
:103F6000FFF7D8FC082200212800FEF7F0FFFFF73A
:103F7000BFFE7EE7002A0ED0298822889142CBD14D
:103F8000002EC9D12000A371FFF7C4FC0822310024
:103F90002800FEF7DCFF01256CE7C72B2BD8002A91
:103FA000F9D0002E23D02A8823889A4216D1AB79E3
:103FB000DA070DD40F2B0BD90F21A3718B43F02BF4
:103FC000A1D0A3791A09013212010B40134399E7DA
:103FD000082221002800FEF7C2FFDCE72000FFF7DF
:103FE000FFFC0028AED10123AA791343AB71200056
:103FF000FFF790FCCFE702987968FFF7FDFCB1E787
:1040000036160020F0B585B0009068466C460191E8
:10401000FFF7E0FE2379071E244E254D0CD0002B20
:1040200003D000980199FFF7EAFC07272878337836
:10403000834222D105B0F0BD02AA03CC03C2002BFB
:10404000F3D0072233785C1C14402A7894420AD0BB
:104050001848DB000822C01802A9FEF780FF347060
:10406000FFF726FEE1E7FFF78DFC08223900124832
:1040700037702F70FEF76BFFD7E70E4CC0000019AA
:10408000FFF7A8FE0028D5D02B78DB001A5BE418D8
:104090006088E188A3880004090419431043FFF7EE
:1040A000AEFC2B7801333B402B70BFE7F4150020AA
:1040B000F3150020F615002036160020014B187865
:1040C000C00870473E160020024B1878072318409E
:1040D0007047C0463E160020034B1878072318404F
:1040E000431E9841C0B270473E160020084B10B5E1
:1040F0005A78920609D5074A1278002A05D01B780B
:104100007F2B02D90BF038F910BD0BF01DF9FBE73E
:10411000FE300020DC0E0020014B18787047C046AE
:104120006A1600202021044B1A781043034A1870A5
:1041300053788B43537070476A160020FE3000207E
:104140002021044A137883431370034A53788B4326
:10415000537070476A160020FE3000200022014B89
:104160001A7070476A160020024B1A7810431870B4
:104170007047C04669160020024A137883431370C3
:104180007047C046691600200022014B1A70704724
:1041900069160020704710B5FFF7FCFF10BD000046
:1041A000030010B5044A1078034203D098431070FE
:1041B000FFF7F1FF10BDC0463F160020704710B555
:1041C000FFF7FCFF10BD0000010010B5044A137892
:1041D0001940814203D003431370FFF7F0FF10BD75
:1041E00040160020030010B5044A1078034203D0A3
:1041F00098431070FFF7E3FF10BDC0464016002043
:10420000704710B5FFF7FCFF10BD0000094B10B55B
:104210005B785B070AD5084CC30019432170FFF790
:104220003DFC2078C008FFF7ECFF10BDFFF736FC1F
:10423000FBE7C046FE3000203E160020002010B5EF
:10424000024B1870FFF7DDFF10BDC0463E16002080
:1042500010B5094A13781900814311704A070AD131
:10426000994208D0054B5B785B0704D5C808FFF777
:1042700021FCFFF7E3FF10BD3E160020FE300020BA
:104280000A4A10B553785907C90F81420CD0012151
:104290000840033180008B4303435370108800F0C3
:1042A0004AF80220FFF7D4FF10BDC046FE300020C0
:1042B000044B10B5587801234007C00F5840FFF752
:1042C000DFFF10BDFE30002010B50120FFF7D8FF42
:1042D00010BD10B50020FFF7D3FF10BD704710B51B
:1042E000FFF7FCFF10BD000010B508F021FD002015
:1042F000014900F0D2FD10BDFFFF0000002010B505
:1043000000F070FD034B020000209A4201D103F03F
:1043100035FF10BDE6FE000010B5022000F056FD8E
:1043200010BD10B5032000F051FD10BD10B50420E4
:1043300000F058FD10BD10B50100042000F0ADFDE7
:1043400010BD10B501000E2000F09BFD10BD10B592
:10435000040001210F2000F0ACFD012225212000E6
:1043600000F072FD10BD000007B5034B01A81B78DB
:104370000370FFF7ECFF07BDEEFE000010B5040070
:104380000421132000F095FD04222621200000F0D6
:104390005BFD10BD002307B501A80193FFF7EEFFF9
:1043A00007BD000007B508F0C3FC0020234900F05A
:1043B00074FD0021022000F064FD0121204B032048
:1043C000197000F05EFDA0210420490100F065FD98
:1043D0000021062000F055FD0021072000F051FDCE
:1043E0000021082000F065FD0021242000F049FD97
:1043F0000021172000F045FD00210C2000F041FDB8
:1044000000210D2000F03DFD002300221821009224
:1044100001936846083200F017FD0021202000F0CB
:1044200048FDFFF7A1FFFFF7B5FF002003F0BAFE3C
:1044300003F0DFFEFFF753FF07BDC046E6FE0000B6
:10444000F215002010B5FFF7ADFF10BDF7B504F071
:10445000F7F9094E0400338883420BD06D460027DC
:104460002F8004F0EDF9AF80688000980199FEF785
:104470003DFF3480F7BDC0466C16002010B504F037
:10448000BFF9024B1860024B186010BD8016002067
:104490007C1600207047704710B5FFF7FCFF10BD79
:1044A00010B5FEF7DBFD10BD0120704710B50548C3
:1044B00000F092FA08F04AFCFFF7ECFFFFF7ECFF80
:1044C00010BDC046D14900000120704710B5FFF76C
:1044D000FBFF10BD704710B5FFF7FCFFFEF7B6FD00
:1044E00010BD10B500F0A4FAFEF7DAFE02F0E4FD0C
:1044F00010BD000010B504F069F903F089FE00F06A
:1045000047FBFFF7EEFF8022054B524219780A4322
:104510001A701888FFF70FFFFFF7C2FF10BDC046E3
:10452000FE300020F0B589B0FFF7BEFF002809D1AA
:10453000FFF78CFF02F028FD03F0C0FBFEF7C0FE82
:1045400009B0F0BD00F03CFB2E4F00243D002000E0
:104550000134E4B22E8800F095FA062C4FD00235D3
:104560008642F4D0284B1B789B0701D500F090FAC7
:10457000FFF7ACFF00240590200000F083FA3B8891
:104580000390984233D043409BB20493002301939D
:1045900001330293029B049A13421BD01D00039B1C
:1045A0001D406B1E9D41059BEDB2002B0DD0019B64
:1045B00006AE3370747004F043F9012370803371D8
:1045C000757106980799FEF791FE2A00200001995F
:1045D00001F08EFA019B0133DBB20193029B5B0079
:1045E0009BB20293019B102BD4D1039B3B800134DF
:1045F000E4B20237062CBFD1FFF740FF9AE78642AC
:10460000B0D195E76E1600208416002070B500F03A
:1046100001F9A4230400DB0198424ED2A023DB0160
:10462000984200D39FE0DF281CD8CC285BD8A7286D
:104630000AD8A42800D97AE0012831D0031F9BB200
:10464000A02B2DD900242BE00300A83B9BB21A2BF2
:10465000F8D85834534BE4B26400E35A8824E40198
:104660001C431DE08023DB0198421BD28026B6014B
:10467000B04200D386E0E72812D9431EFF3B013E3B
:10468000FF3E9BB2B342DDD2000AC0B200F054F943
:104690000500E0B200F0BEF82D023540284384B298
:1046A000201C70BDC0B200F0B5F8F0231B01234000
:1046B0003D4C18430443A4B2F2E7A523DB01984222
:1046C0001DD23A4B98423BD8394B98420DD8394BC2
:1046D000984230D80322C4B2A3081440023AA24040
:1046E0005B01354C13431C43E5E7032101220140E4
:1046F0008A40C3065B0F5B01304C1343F3E7304B3A
:10470000984208D81F202F4B20409C4222D82E4C84
:1047100000020443C4E72D4BC3189BB21F2B00D9E2
:1047200090E7F82304025B011C40294B98E78023A3
:10473000243CDB01D7E71F230340264C1B028FE7F5
:104740000321012201408A40C3065B0F5B01224C1A
:104750001343C8E700F0F0F8F823802400025B015F
:104760001840A401D5E71F20204000F0E5F8E3053C
:104770001B0F1B0202B2C00601D5120112B2174C68
:104780001343B0E7C004C00E00F0D6F80500E0B255
:1047900000F040F8F8232D025B011D4005432E4335
:1047A000B4B27DE7F0FE000000A0FFFF5F52000002
:1047B0003F5200001F520000008DFFFF008CFFFFE2
:1047C000BF5200009F520000F4A0000040ADFFFF68
:1047D000F0A00000F1A00000008AFFFF0090FFFFA2
:1047E00007B58BB201AA1180190A0023052905D843
:1047F00012780F2A02D802F019FF030018000EBD2C
:1048000007B501AB19800199FFF7EAFFFFF7FEFE3C
:104810000EBD0000030010B5E7280AD8DF280AD82B
:10482000312800D173E00FD8292866D02A2800D17A
:1048300074E0180010BDE0380728FAD8FBF7CEFC6A
:1048400018F927303DF9474C392808D0822806D07E
:104850003528EED1374A12789206EAD506E0354A75
:104860001178890761D152781207E2D52923E0E750
:1048700030480121027814000C400A4245D14078AA
:104880000842D6D02300D206D3D4E323D1E7294A65
:1048900012785107CDD50023D206CAD4E333C8E736
:1048A0002449E2230A785007C3D448780121040040
:1048B000023B0C400842E5D0BBE71E4A517889070D
:1048C000B7D512780023D206B3D4E733B1E7194A3B
:1048D00012781107F6D4ACE71649E6230A781007D8
:1048E000A7D4487802210400023B0C400842A0D122
:1048F0002300D2069DD4E7239BE70E4A1178890650
:1049000015D45278120700D493E7392391E7094A66
:104910001278520600D48CE72A238AE7054A1278D7
:10492000520600D485E7312383E7E02381E735236E
:104930007FE7C046FE30002030B5244C21784B077D
:104940000DD514220240043A53425A411823034021
:10495000083B5D426B419A4201D00C2358400B0743
:104960000DD514220240143A53425A4118230340F1
:10497000183B5D426B419A4201D00C235840647849
:10498000E3070DD511220240013A53425A41182340
:104990000340083B5D426B419A4201D009235840D5
:1049A000A4070DD511220240113A53425A4118234F
:1049B0000340183B5C4263419A4201D009235840AE
:1049C000C90601D51823984330BDC046FE300020EB
:1049D0000020704700207047014B18607047C046A8
:1049E000C40E002010B5FFF77FFC10BD10B500F01D
:1049F000E7F80C4B1868002811D040000DD005F0E6
:104A000046FE00F0DDF8002000F03CF8C00703D5BA
:104A1000FFF7E8FF07F040FE10BD0120EFE71E2082
:104A2000EDE7C046681C002010B5FFF7DFFF10BDA2
:104A300010B5FFF763FC002801D1FFF703FDFFF776
:104A40006BFC084B1870FFF771FC074B1880FFF7E1
:104A5000EBFFFFF766FCFEF7E4FF044B1878FFF767
:104A600004F810BD84160020FE300020F11500204F
:104A7000704710B5FFF7FCFF10BD704710B5FFF78A
:104A8000FCFF10BD014B4000185A70470C3100204C
:104A9000704700000A4B8000C35870B55A1C0DD0F7
:104AA00072B60F221C00134094430E3A15009D402D
:104AB0002000290006F099FBA56062B670BDC046D3
:104AC00028FF0000F8B5002420000134E4B2FFF70D
:104AD000E1FF102CF8D10F250127094C094E206861
:104AE000431C09D072B6030039002B4099402022A4
:104AF000A84306F07AFB62B60434B442EFD1F8BDA5
:104B000068FF000080FF0000F7B51F4B01928A008C
:104B1000D358040000915A1C32D072B60F250126DA
:104B20001F002B409E40AF43310001223800360465
:104B300006F05BFBBE6062B6FEF764FA0C239C468F
:104B4000019B0026DF431149A4440A682388501CB6
:104B500017D01000A84300682A40D040012210421C
:104B60000FD10126019A1343238002340431644596
:104B7000EBD10098FFF78EFF31000098FEF743FA63
:104B8000F7BD3B40F0E7C04628FF000068FF00008B
:104B900010B5FFF797FF0C2200210748FEF7D7F961
:104BA0000C2200210548FEF7D2F9062000F03EF85D
:104BB000FFF75FFF10BDC0460C3100200031002020
:104BC00030B585B00C22002101A8FEF7C0F9002401
:104BD0000125210001342A0001A86D00E4B2FFF78D
:104BE00093FFADB2102CF4D10E4C0C22200001A981
:104BF000FEF78CF905006B1E9D41EDB2002804D034
:104C00000C22200001A9FEF7AAF92B000622064972
:104C1000200000F021F80400FFF730FF200005B06D
:104C200030BDC046003100200C31002070B50501B8
:104C30002800FEF791F80400064B45191860A542BC
:104C400000D170BD200010220021FEF780F9103441
:104C5000F5E7C0468C160020F0B514000022464F40
:104C60001D003E78454B85B0019002911A70964226
:104C700000D17DE003F0C4FD414A13681060C31AFF
:104C8000FF2B42D8002B17D0002139700F003D4A6E
:104C9000200111703C4ADBB2126810180090009895
:104CA000824234D1002902D00122364B1A70002FE3
:104CB00002D00122304B1A70002D0AD13500314B41
:104CC0001B78002B1DD0002D03D103F099FD2C4B38
:104CD000186000212B4B240119702B4B02981B6884
:104CE000019D1A19029201229446284A0392029ABF
:104CF00093421FD1002904D00122204B1A701E4B71
:104D00001A701E4B187805B0F0BDFF23BCE71020C9
:104D1000844694441078002804D0834206D30021AE
:104D20001170310001326245F4D1B8E7C01A370082
:104D30001070F7E704882A886240009200226646D5
:104D40009640B7B20197009F3E4209D09E5C002E6C
:104D500006D1039909689954019961400C00614694
:104D60000132102AEBD10480103302300235BEE745
:104D7000002DA4D0A9E7C046871600208516002084
:104D800088160020861600208C160020681C002043
:104D900010B503F083FFFFF7ADFB03F093FF10BDE9
:104DA00010B503F097FFFFF7BDFB03F097FF10BDB1
:104DB00010B503F0AEFC03F06CFFFFF777FBFFF7D5
:104DC000E7FFFFF7EDFFFFF786FBFAE713B56B464A
:104DD000DC1D0023010001222000237008F0B8F838
:104DE000207816BD13B56B469C1D002301000222DE
:104DF0002000238008F0ACF8208816BD002307B5FA
:104E0000010001A80422019308F0A2F801980EBD48
:104E100007B56A460300D01D01700122190008F091
:104E2000B1F807BD07B56A460300901D0180022254
:104E3000190008F0A7F807BD07B504220191010089
:104E400001A808F09FF807BDF8B51400D31D6A4605
:104E5000DB08DB00D31A00AF9D4605002200684640
:104E60000E0008F075F8220069462800FEF74EF89B
:104E7000002804D022003100280008F083F8BD4645
:104E8000F8BD70B50D000400FFF7A0FFA84203D0E5
:104E900029002000FFF7BCFF70BD70B50D000400B5
:104EA000FFF7A0FFA84203D029002000FFF7BAFFB8
:104EB00070BD70B50D000400FFF7A0FFA84203D03D
:104EC00029002000FFF7B8FF70BD00007FB5050A7C
:104ED000040CEDB20190E4B2002D0FD1002901D0F5
:104EE000274B1C5D20002300FF22134010401B02B3
:104EF000144024041843204304B070BD01AB1E7855
:104F0000002901D01E4B1C5D0620FF217043FBF7DA
:104F10000DFA55235B4243437600F31803265E43A4
:104F2000FF21F6B233008E1B4A1B6B4375431B12E5
:104F30002D12CB1A491B62436343614312121B12A9
:104F40000912D2B2DBB2C9B2062813D8FBF750F966
:104F500004060B090E12040023000C0020001400AC
:104F6000C2E721001C0013000A00F7E70B00210034
:104F70001400F9E7210014001A000B00EEE7C04608
:104F800088FF00001FB50121FFF7A0FFFF210200ED
:104F9000030A0B40000C08400A401B021A4303049A
:104FA00002481040184305B000BDC046FFFF00FF97
:104FB000010030B5C0B2012916D9F723FF225B01E9
:104FC000994202D84A090832D2B20124A0184010EE
:104FD00005004543ADB2C3B2A94206D2013BDAB2E5
:104FE0009442F3D9013CE0B230BDFF28FCD001333C
:104FF000DCB2F5E7054A064B11884B4305495B18BF
:105000009BB2180AC018C0B213807047CE0E0020A1
:1050100005080000193600000F21430615D40B00C7
:105020000200034092060B49920F52005218517829
:1050300012784B431B119B1840B2DBB2002801DAF7
:105040005B42DBB2803BD8B27047C343DAB20B405D
:105050000133E7E780FF00001FB5030A01903031FC
:10506000D8B20E4B4900C95CE4234B431B121C33DE
:105070009A1AD317D2185A40D200821A01AC131CC4
:10508000120400D500231BB258430012A3786070AD
:1050900020881B04184304B010BDC046480D0020F2
:1050A000030C84B001903031D8B2104B4900C95C78
:1050B000E4234B431B121C339A1AD317D2185A40BD
:1050C000D200821A131C120400D5002301AA1288F0
:1050D0001BB2FF21434310001B12120A08401202A8
:1050E0000B401B041043184304B07047480D0020C8
:1050F00084B001A901908B780A7008881B041843BA
:1051000004B070471FB5074B30314900CB5C01AC90
:1051100001909B1A2370A37820881B04184304B0C5
:1051200010BDC046480D00201FB5074B3031490067
:105130005B185B7801AC01909B1A2370A3782088E0
:105140001B04184304B010BD480D0020F0B53031E9
:1051500015000E4A4B00D3185F7885B03E00203E04
:10516000019001ACC0B273B2360602D52023DB1B1E
:105170005BB24900525C521BD2188018A378207091
:1051800020881B04184305B0F0BDC046480D002020
:1051900084B004AA0190107803225A43521001A946
:1051A00080188B78087008881B04184304B0704777
:1051B0001FB51C0001904BB2080601D549424BB205
:1051C0003820C01A80B292B252434043801880B255
:1051D000FFF7EEFE0323434301AAE418147093780B
:1051E00010881B04184304B010BD00007FB50D4D9E
:1051F00030335B00EE185B5D7678703B59437F235C
:10520000203E72435118CA171A405218D21101ACED
:1052100001901218A378227020881B04184304B050
:1052200070BDC046480D00207FB50D4D30335B008A
:10523000EE185B5D7678703B59433F23203E724306
:105240005118CA171A405218921101AC0190121845
:10525000A378227020881B04184304B070BDC04698
:10526000480D00207FB5134D30335B00EE18767883
:105270000190203E72435E5D01AC3500703DC0B2CE
:105280006BB22D0602D570239B1B5BB23825EB1A3F
:10529000594303238A187F215343DA170A40D2184F
:1052A000D2118018A378207020881B04184304B002
:1052B00070BDC046480D00200C4B3031490084B011
:1052C00001905818C95C03234078091A4B43DBB29C
:1052D000991AC9B2202801D9D218D1B201AA93785B
:1052E000117010881B04184304B07047480D00204B
:1052F0007FB50E00041C01901000FFF78DFE3036C4
:105300000E4B7600F35C01ADC018C0B20200803ACB
:10531000E4B2D3B2120603D580235B421B1ADBB280
:105320000C225B00DBB253431B12E4182C70AB78E9
:1053300028881B04184304B070BDC046480D0020E7
:1053400030B50C4B30314900CD5C85B0AB1A0190C3
:1053500001ACC0B2D9B21B0601D5521BD1B2182381
:105360004B431B12C0182070A37820881B041843DD
:1053700005B030BD480D0020C943C9B284B08908CA
:1053800001AA019009189378117010881B04184322
:1053900004B070471FB501900520434306AA128848
:1053A00001A9D3181A1C9BB2FF2B00D9FF22D343AB
:1053B0008A78DBB29B181C1CFF2B00D9FF240A88BB
:1053C000FF231000120A1840120223401B0410434E
:1053D000184304B010BD30B585B0019008A800880E
:1053E0001B18C81709184140D0171218424009B2BB
:1053F0009BB292B20901FF2900DDFF2112B2120116
:10540000FF2A00DDFF220C1C15B209B201A8A94237
:1054100000DD141C1B191A1C9BB2FF2B00D9FF22A4
:10542000D3438278DBB29B18191CFF2B00D9FF21D4
:105430000288FF231000120A184012020B401B04BE
:105440001043184305B030BD7FB5050C160008AAFF
:1054500001901288E8B201ACFF25482B06D8D31A78
:105460001A1C9BB2AB4200D92A1C95B2083189B2F2
:10547000102905D9330008339BB2102B00D9FF2522
:105480000321ED430C4BF2170A405B7892199210FE
:10549000EDB2D21840192270011CFF2800D9FF215B
:1054A0002288FF231000120A184012020B401B042E
:1054B0001043184304B070BD1831002084B004AA12
:1054C00012880190D21A131C92B2FF2A00D9FF232E
:1054D000DBB2D94301AA9078C9B24018011CFF2859
:1054E00000D9FF2110781B1813701288FF231000B9
:1054F000120A184012020B401B041043184304B058
:1055000070471FB506AA128801A9D31A1A1C9BB2AC
:105510000190FF2B00D9FF22D3438A78DBB29B187E
:105520001C1CFF2B00D9FF240A88FF231000120A3D
:105530001840120223401B041043184304B010BD4E
:10554000024B1A78104318707047C046AA17002003
:10555000012310B5044C082218210448237007F0D9
:10556000F7FC0023237010BDAA170020183100207B
:1055700010B50B00041E02D1C80FC00110BDC11729
:1055800042184A4012B2D118002B0BDB9B1A58016B
:10559000FAF7CCFE2023181AC0B2002CEEDA4042F3
:1055A000C0B2EBE74801D11AFAF7C0FE6023F2E778
:1055B0007FB5040A0190E4B21000E51AFFF7D8FFA6
:1055C0008300C01AEDB22D18EDB26C4301AE241267
:1055D000B378747030881B04184304B070BD7FB575
:1055E000050C041CEDB21000EE1AFFF7C1FF83009A
:1055F000C01AFF231A00F6B23618F6B27543200A15
:10560000184022402D0A00022D041043284304B004
:1056100070BD7FB5060A0190100008AA1278F6B294
:105620009C1AFFF7A5FF3419E4B2201AC0B27043E8
:1056300001AD0412AB786C7028881B04184304B0C9
:1056400070BD7FB5041C050C100008AA1678EDB2D9
:105650009E1BFFF78DFFFF231A00AE19F6B2361A14
:10566000F6B27543200A184022402D0A00022D048C
:105670001043284304B070BD30B585B001901000D0
:105680001D00FFF775FF01AC4019A378207020883A
:105690001B04184305B030BD30B585B00190100033
:1056A00008AA147801AD1C1BFFF762FFE4B2241AAC
:1056B000AB782C7028881B04184305B030BD00005F
:1056C000082210B518210348FFF7BEFB0022024B49
:1056D0001A7010BD18310020AA1700201FB5FFF75F
:1056E00051FCFF210200030A0B40000C08400A4055
:1056F0001B021A43030402481040184305B000BDC2
:10570000FFFF00FF10B5FFF7DBFF10BD352310B51D
:10571000064C03220649601C2370FDF720FC812300
:105720005B42A380FFF7CCFF10BDC04618310020BC
:1057300080F900000020704770B504000E001500CD
:10574000FFF7F8FF044B24011B199B5DFF2B02D0D0
:105750002B540130C0B270BD480D002010B5024B73
:10576000DB68984710BDC0462C08010010B5024CFC
:105770006468A04710BDC0462C080100164BF7B561
:10578000C318DB7D05000B4224D06E46134B9A787C
:105790007270DA78B2705C78FFF72CFCB4210700E5
:1057A00020004900B430FAF7A7FE0322091BCB17EB
:1057B00013405B1817409B107B43E418347000982B
:1057C000FFF78CFF01040302C2B21B0E2800090E72
:1057D000FFF7CCFFF7BDC046470E00201831002070
:1057E0000F4B37B5C318DB7D04000B4217D0FFF712
:1057F00001FC6D462870FFF7FDFBC0010012094B4C
:105800007F306870DB78AB700098FFF767FF0104AA
:105810000302C2B21B0E2000090EFFF7A7FF37BD1F
:10582000470E002018310020F7B5164B164C1B68A8
:1058300027799BB2FF085F430322611C05003F12DA
:105840006846FDF78CFBF8B2FFF7E6FB0200803AF2
:105850006E46E478D3B2120603D580235B421B1A4E
:10586000DBB25B00DBB25C432412B4700098FFF73C
:1058700089FB01040302C2B21B0E2800090EFFF7C8
:1058800075FFF7BD2031002018310020F0B51C4B0A
:105890001C4D85B001902C791B68E4089BB25C43D9
:1058A00002AF691C032224123800FDF758FBE0B256
:1058B000FFF7B2FB0300803BAE78DCB2ED781B064D
:1058C00003D580246442241AE4B2FDF707FB3D218E
:1058D000FAF712FE33006400E4B265431E3BC918B8
:1058E0002D127970BD700298FFF74CFB0104030282
:1058F000C2B21B0E0198090EFFF738FF05B0F0BDCC
:105900002031002018310020F0B51C4B1C4D85B013
:1059100001902C791B68E4089BB25C4302AF691CC0
:10592000032224123800FDF71AFBE0B2FFF774FBE4
:105930000300803B6E78DCB2ED781B0603D5802433
:105940006442241AE4B2FDF7C9FA3D21FAF7D4FD06
:1059500033006400E4B265431E3BC9182D12397050
:10596000BD700298FFF70EFB01040302C2B21B0ECA
:105970000198090EFFF7FAFE05B0F0BD20310020B6
:105980001831002010B5024B9B68984710BDC046E7
:105990002C080100F0B50325504B89B0DC780600D7
:1059A0006543AD10EBB22100FF200593FAF7BEFC72
:1059B000C3B20493B3784A4A0292002B0CD000225F
:1059C00011001000FFF7DEFF602200210298FDF7B2
:1059D000BEFA0022434B1A70434A13780133137006
:1059E000029B0193002300930027019E3D4B1B78EF
:1059F0003B435CD1FDF772FA3C4B984257DC019B6C
:105A00001C703800009906AAFFF796FE002811D0F6
:105A100006AB1B7830780393059B984254D9401B02
:105A2000611B6843FAF782FCC1B20B0022000398A5
:105A3000FFF79CFE0137FFB21036062FD6D1009B30
:105A40000133DBB20093019B01330193009B102BC8
:105A5000CAD1254B04991A788A4201D100221A70C2
:105A6000204A13780133DBB21C2B35D900231020D8
:105A700013700522029E651E50360099331A052ABE
:105A800003D11F5CBC4200D11D541F78A74201D333
:105A90001D701C740139C9B201330029EFD1013ADC
:105AA000D2B21030002AE8D1002009B0F0BD33781E
:105AB000002BA6D09C42A4D90B4A049912788A42A2
:105AC0009FD1013B33709CE729006043FAF72EFC1D
:105AD0000023C2B21900AAE71370E5E718310020CD
